:100000000C945F000C9487000C9487000C9487007C
:100010000C9487000C9487000C9487000C94870044
:100020000C9487000C9487000C9487000C94870034
:100030000C9487000C9487000C9487000C94870024
:100040000C9481010C9487000C94F2030C943504F9
:100050000C9487000C9487000C9487000C94870004
:100060000C9487000C948700000000070002010038
:100070000003040600000000000000000102040864
:100080001020408001020408102001020408102002
:10009000040404040404040402020202020203032E
:1000A0000303030300000000250028002B000000CC
:1000B0000000240027002A00E300F604E9001124D0
:1000C0001FBECFEFD8E0DEBFCDBF11E0A0E0B1E0B2
:1000D000E8E0F0E102C005900D92A633B107D9F730
:1000E00021E0A6E3B1E001C01D92A43FB207E1F711
:1000F00010E0CEE5D0E004C02197FE010E94D807B1
:10010000CC35D107C9F70E947B050C94F7070C94F6
:10011000000040E855E260E070E086E491E00E9473
:10012000700486E491E00E94F4048823D1F361E036
:1001300087E00E94160160E0809100010C9452015A
:10014000CF93DF93CDB7DEB727970FB6F894DEBF16
:100150000FBECDBF66E471E0CE0101960E9461053D
:10016000BE016F5F7F4F86E391E00E94E102CE0106
:1001700001960E945D0268E071E086E391E00E94D2
:1001800039038823B9F061E0809100010E94520197
:1001900064EF71E080E090E00E94FC0160E08091FB
:1001A00000010E94520164EF71E080E090E00E9443
:1001B000FC01E9CF27960FB6F894DEBF0FBECDBF86
:1001C000DF91CF91089564E271E086E391E00C94B1
:1001D000CB0286E391E00C945D02833081F028F439
:1001E000813099F08230A1F008958630A9F08730EF
:1001F000B9F08430D1F4809180008F7D03C080916C
:1002000080008F7780938000089584B58F7702C037
:1002100084B58F7D84BD08958091B0008F7703C031
:100220008091B0008F7D8093B0000895CF93DF93CD
:1002300090E0FC01E458FF4F2491FC01E057FF4F90
:100240008491882361F190E0880F991FFC01E255A9
:10025000FF4FC591D491FC01EC55FF4FA591B4918E
:10026000611109C09FB7F894888120958223888303
:10027000EC912E230BC0623061F49FB7F894888113
:10028000322F309583238883EC912E2B2C939FBFA4
:1002900006C08FB7F894E8812E2B28838FBFDF919B
:1002A000CF9108951F93CF93DF93282F30E0F9016A
:1002B000E859FF4F8491F901E458FF4FD491F901B7
:1002C000E057FF4FC491CC23C1F0162F81110E943B
:1002D000ED00EC2FF0E0EE0FFF1FEC55FF4FA59166
:1002E000B4919FB7F894111104C08C91D095D82384
:1002F00002C0EC91DE2BDC939FBFDF91CF911F9169
:1003000008951F920F920FB60F9211242F933F93CF
:100310008F939F93AF93BF9380913E0190913F0144
:10032000A0914001B091410130913D0123E0230FA4
:100330002D3720F40196A11DB11D05C026E8230F1D
:100340000296A11DB11D20933D0180933E01909323
:100350003F01A0934001B0934101809142019091EF
:100360004301A0914401B09145010196A11DB11D29
:100370008093420190934301A0934401B0934501BF
:10038000BF91AF919F918F913F912F910F900FBE91
:100390000F901F9018952FB7F89460913E017091BF
:1003A0003F0180914001909141012FBF08953FB7D7
:1003B000F8948091420190914301A0914401B09141
:1003C000450126B5A89B05C02F3F19F00196A11D38
:1003D000B11D3FBFBA2FA92F982F8827820F911DDB
:1003E000A11DB11DBC01CD0142E0660F771F881F22
:1003F000991F4A95D1F70895CF92DF92EF92FF921D
:10040000CF93DF936B017C010E94D701EB01C114F4
:10041000D104E104F10479F00E94D7016C1B7D0B3B
:10042000683E7340A0F381E0C81AD108E108F108E2
:10043000C851DC4FECCFDF91CF91FF90EF90DF9070
:10044000CF900895789484B5826084BD84B581602E
:1004500084BD85B5826085BD85B5816085BDEEE6CC
:10046000F0E0808181608083E1E8F0E010828081AB
:1004700082608083808181608083E0E8F0E0808119
:1004800081608083E1EBF0E0808184608083E0EB39
:10049000F0E0808181608083EAE7F0E08081846021
:1004A000808380818260808380818160808380817D
:1004B000806880831092C1000895FC018081918141
:1004C0000C942006CF93DF93EC01888199810097EB
:1004D00011F00E942006198218821D821C821B8244
:1004E0001A82DF91CF9108950F931F93CF93DF93DB
:1004F000EC018B016F5F7F4F888199810E94A90673
:10050000009731F0998388831B830A8381E001C0BF
:1005100080E0DF91CF911F910F910895CF93DF93EA
:10052000EC0188819981892B29F08A819B8186172A
:10053000970760F4CE010E947402882341F08C81F9
:100540009D81892B19F4E881F981108281E0DF9186
:10055000CF910895EF92FF920F931F93CF93DF9364
:10056000EC017B018A01BA010E948E02811104C054
:10057000CE010E94620207C01D830C83B7018881EF
:1005800099810E94F007CE01DF91CF911F910F91C9
:10059000FF90EF900895FC01118210821382128265
:1005A0001582148216826115710551F0FB010190CC
:1005B0000020E9F73197AF01461B570B0C94AA02B4
:1005C0000895CF93DF93EC01FB018617970761F045
:1005D000608171816115710529F0448155810E9406
:1005E000AA0202C00E946202CE01DF91CF9108955B
:1005F000EF92FF920F931F93CF93DF9361157105D5
:1006000011F480E01CC041155105C1F07B01EC01E3
:100610008C819D818A01080F191FB801CE010E94AB
:100620008E02882371F3288139818C819D81B701E5
:10063000820F931F0E94F0071D830C8381E0DF91DE
:10064000CF911F910F91FF90EF900895CF93DF937B
:1006500000D0CDB7DEB769831A8241E050E0BE0119
:100660006F5F7F4F0E94F8020F900F90DF91CF9144
:100670000895FC0124813581232B31F421E061159B
:100680007105A1F0FB0108C0FC0180819181611519
:10069000710531F421E0FC018081882339F005C027
:1006A0000E94E70721E0892B09F020E0822F0895BE
:1006B000FC0124853585F901E05CFF4F8081918143
:1006C000329620813181821B930B8F739927089575
:1006D000DC011C96ED91FC911D97DF01A05CBF4FE2
:1006E0002D913C91119712968D919C9111972817FD
:1006F000390739F08D919C91E80FF91F808190E0C6
:1007000008958FEF9FEF0895FC01A485B585FD0145
:10071000E05CFF4F208131813296808191812817E2
:10072000390779F080819181A80FB91F8C912081C0
:1007300031812F5F3F4F2F7333273183208390E028
:1007400008958FEF9FEF0895FC0181A1882329F080
:10075000A489B5898C9186FFFBCF11A208950F93D0
:100760001F93CF93DF93FC01A685B7858D01005CB5
:100770001F4FE8018881998101968F739927AD01F8
:100780004E5B5F4FEA012881398128173907D1F381
:10079000E80128813981A20FB31F6C93A685B78524
:1007A000A05CBF4F11969C938E93A689B7892C911C
:1007B00081E090E0078C02C0880F991F0A94E2F74D
:1007C000822B8C9381E081A30488F589E02D8081C0
:1007D0008064808381E090E0DF91CF911F910F9141
:1007E000089508951F920F920FB60F9211242F9320
:1007F0004F935F938F939F93EF93FF938091C000EC
:1008000082FD1CC02091C6008091EC019091ED0109
:100810004091EE015091EF0101968F73992748178F
:10082000590771F0E091EC01F091ED01E455FE4FB4
:1008300020839093ED018093EC0102C08091C6006B
:10084000FF91EF919F918F915F914F912F910F9019
:100850000FBE0F901F90189586E491E00E945803F8
:10086000892B11F00C94F10308951F920F920FB68B
:100870000F9211242F933F938F939F93EF93FF93A6
:100880002091A8013091A9018091AA019091AB011A
:100890002817390731F48091C1008F7D8093C10002
:1008A00014C0E091AA01F091AB01E859FE4F2081FC
:1008B0008091AA019091AB0101968F739927909333
:1008C000AB018093AA012093C600FF91EF919F9105
:1008D0008F913F912F910F900FBE0F901F90189501
:1008E000CF92DF92EF92FF92CF93DF93EC016A01F8
:1008F0007B014115514E6105710509F1EC89FD89B6
:1009000081E090E008A002C0880F991F0A94E2F7E6
:10091000808360E079E08DE390E0A70196010E947A
:10092000B607DA01C9010197A109B109B695A795E2
:10093000979587959C01211580E13807A8F0EC89EF
:10094000FD89108260E874E88EE190E0A7019601CD
:100950000E94B607DA01C9010197A109B109B6954C
:10096000A795979587959C01E889F9893083EA894D
:10097000FB89208319A2EE89FF89408181E090E004
:100980009C010C8C02C0220F331F0A94E2F7242B27
:100990002083EE89FF8940819C010D8C02C0220FCB
:1009A000331F0A94E2F7242B2083EE89FF894081CC
:1009B0009C010E8C02C0220F331F0A94E2F7242BF5
:1009C0002083EE89FF8920810F8C02C0880F991F38
:1009D0000A94E2F7809582238083DF91CF91FF9084
:1009E000EF90DF90CF90089581E00895E6E4F1E084
:1009F0001382128288EE93E0A0E0B0E084839583B6
:100A0000A683B78389E291E0918380838CEA91E0A9
:100A10009587848788E691E09787868785EC90E0C4
:100A2000918B808B84EC90E0938B828B80EC90E0B8
:100A3000958B848B81EC90E0978B868B82EC90E099
:100A4000918F808F86EC90E0938F828F84E0848FEB
:100A500083E0858F87E0868F85E0878F81E080A3A4
:100A600008950F931F93CF93DF93EC010E94CB0166
:100A7000688779878A879B87E881F9810680F78173
:100A8000E02DCE01099597FF17C00E94CB01088584
:100A900019852A853B85DC01CB01801B910BA20BBC
:100AA000B30B0C811D812E813F8180179107A20716
:100AB000B30710F38FEF9FEFDF91CF911F910F914D
:100AC00008950F931F93CF93DF93EC018B0164E2A2
:100AD00071E00E94CB02C8010E94310597FD05C05C
:100AE000682FCE010E942603F6CFCE01DF91CF9171
:100AF0001F910F9108950E9422020E948900CCE26A
:100B0000D4E00E94A0002097E1F30E942C04F9CFCA
:100B10000F931F93CF93DF938230910510F482E0FF
:100B200090E0E091F201F091F30120E030E0A0E0EC
:100B3000B0E0309719F1408151810281138148174B
:100B40005907C8F08417950769F4109731F0129689
:100B50000C93129713961C9327C00093F2011093E5
:100B6000F30122C02115310519F04217530718F47B
:100B70009A01BD01EF01DF01F801DBCF211531053D
:100B8000F9F0281B390B2430310580F48A819B81D0
:100B90006115710521F0FB019383828304C090935A
:100BA000F3018093F201FE01329644C0FE01E20F90
:100BB000F31F8193919322503109398328833AC0DE
:100BC0002091F0013091F101232B41F42091040197
:100BD000309105013093F1012093F0012091020141
:100BE000309103012115310541F42DB73EB74091F5
:100BF000060150910701241B350BE091F001F091A3
:100C0000F101E217F307A0F42E1B3F0B2817390759
:100C100078F0AC014E5F5F4F2417350748F04E0F58
:100C20005F1F5093F1014093F0018193919302C0B3
:100C3000E0E0F0E0CF01DF91CF911F910F91089597
:100C4000CF93DF93009709F481C0FC0132971382A0
:100C50001282A091F201B091F301109781F42081EA
:100C60003181820F931F2091F0013091F1012817FB
:100C7000390751F5F093F101E093F00167C0ED0100
:100C800020E030E0CE17DF0740F44A815B819E010F
:100C900041155105F1F0EA01F5CFD383C2834081BC
:100CA0005181840F951FC817D90759F488819981FC
:100CB000840F951F0296918380838A819B81938301
:100CC00082832115310529F4F093F301E093F201B9
:100CD0003DC0E901FB83EA8349915991C40FD51FB7
:100CE000EC17FD0761F480819181840F951F0296B6
:100CF000E90199838883828193819B838A83E0E0E1
:100D0000F0E012968D919C911397009719F0FD01D8
:100D1000DC01F7CF8D919C9111979D012E5F3F4F84
:100D2000820F931F2091F0013091F10128173907AC
:100D300069F4309729F41092F3011092F20102C085
:100D400013821282B093F101A093F001DF91CF9151
:100D500008956F927F928F929F92AF92BF92CF929F
:100D6000DF92EF92FF920F931F93CF93DF93009741
:100D700089F4CB01DF91CF911F910F91FF90EF90FC
:100D8000DF90CF90BF90AF909F908F907F906F90AB
:100D90000C948805FC01E60FF71F9C0122503109D5
:100DA000E217F30708F4A9C0EC01D9010D911C91D9
:100DB000119706171707B0F00530110508F49BC00E
:100DC000C80104978617970708F495C002501109C7
:100DD000061B170B019311936D937C93CF010E9417
:100DE000200689C05B01A01AB10A4C01800E911E39
:100DF000A091F201B091F301612C712CE12CF12C46
:100E0000109709F446C08D919C911197A815B905CA
:100E1000B1F56C0142E0C40ED11CCA14DB0478F1B8
:100E20004C018A189B08640142E0C40ED11C129642
:100E3000BC9012971396AC91B5E0CB16D10440F05C
:100E4000B282A38391828082D9016D937C9309C081
:100E50000E5F1F4F800F911FF90191838083EB2D4F
:100E6000FA2FE114F10431F0D7011396FC93EE93BD
:100E7000129741C0F093F301E093F2013CC0681671
:100E8000790608F43C017D0112960D90BC91A02DCD
:100E9000B7CF8091F0019091F10188169906E1F4A5
:100EA00066167706C8F480910201909103010097BD
:100EB00041F48DB79EB74091060150910701841B04
:100EC000950BE817F907C8F4F093F101E093F001EE
:100ED000F901718360830FC0CB010E9488057C01FA
:100EE000009759F0A801BE010E94DE07CE010E94C2
:100EF0002006C70104C0CE0102C080E090E0DF916F
:100F0000CF911F910F91FF90EF90DF90CF90BF9006
:100F1000AF909F908F907F906F900895CF92DF92C7
:100F2000EF92FF920F931F93CF93DF936C01EB012E
:100F30007B01E40EF51E00E010E0CE15DF0561F048
:100F40006991D601ED91FC910190F081E02DC601EF
:100F50000995080F191FF1CFC801DF91CF911F919B
:100F60000F91FF90EF90DF90CF900895A1E21A2E9D
:100F7000AA1BBB1BFD010DC0AA1FBB1FEE1FFF1F3D
:100F8000A217B307E407F50720F0A21BB30BE40B8D
:100F9000F50B661F771F881F991F1A9469F76095D4
:100FA0007095809590959B01AC01BD01CF0108958E
:100FB000EE0FFF1F0590F491E02D0994FB01DC0179
:100FC00002C001900D9241505040D8F70895FB01A6
:100FD000DC018D91019080190110D9F3990B0895CE
:100FE000FB01DC0101900D920020E1F7089510E073
:100FF000CEE5D0E004C0FE010E94D8072196CF358F
:08100000D107C9F7F894FFCFF6
:1010080007000000F40180004D4354467B546833C8
:101018005F416C34526D5F4861245F47306E335FC7
:101028003066667D0000000000AF038E0758038419
:06103800036803A403009D
:00000001FF
